:020000040000FA
:0400080010EF10F0F5
:0800180000EF20F0FFFFFFFFE5
:10002000FFFFFFFFFFFFFFFFFFFFFFFFFFFFFFFFE0
:10003000FFFFFFFFFFFFFFFFFFFFFFFFFFFFFFFFD0
:10004000FFFFFFFFFFFFFFFFFFFFFFFFFFFFFFFFC0
:10005000FFFFFFFFFFFFFFFFFFFFFFFFFFFFFFFFB0
:10006000FFFFFFFFFFFFFFFFFFFFFFFFFFFFFFFFA0
:0A007000FFFFFFFFFFFFFFFFFFFF90
:1020000000962000FA20008C2100322200CE22000F
:102010006A2300A62300BA2E0000EBEC16F0120093
:10202000D8CFE5FFE0CFE5FFE56EF3CFE5FFF4CFD6
:10203000E5FFE9CFE5FFEACFE5FFFACFE5FFFBCF0C
:10204000E5FFD9CFE5FFE1CFD9FFF6CFE5FFF7CF29
:10205000E5FFF8CFE5FFF5CFE5FF39EC17F0E4CF6A
:10206000F5FFE4CFF8FFE4CFF7FFE4CFF6FFE4CFCE
:10207000D9FFE4CFFBFFE4CFFAFFE4CFEAFFE4CFE0
:10208000E9FFE4CFF4FFE4CFF3FFE450E4CFE0FF57
:10209000E4CFD8FF100012010002FF00FF08D804AF
:1020A000AAFE00010102030309021200010104C09B
:1020B000000904000000FFFFFF04090220000102E4
:1020C00005C0000904000002FFFFFF05070501022B
:1020D00040000007058202400000090220000103C1
:1020E00004C0000904000002FFFFFF06070501020B
:1020F00040000007058202400000A82000BA20002E
:10210000DA2000000403090426034A006500610088
:102110006E002D00500069006500720072006500BD
:1021200020004D0041004E0044004F004E002203AD
:10213000500069006E006700750069006E006F0056
:102140002000500072006F006A0065006300740098
:10215000040331001003440065006600610075004F
:102160006C0074000C0346006C0061007300680092
:102170001C03500069006E006700750069006E0066
:102180006F0020006100700070006C0004210008E6
:1021900021002E21005021005421006421007021D3
:1021A00000002E0000BE2E00BE2E00BE2E00BE2E51
:1021B00000BE2E00BE2E00BE2E00BE2E00BE2E0083
:1021C000BE2E00BE2E00BE2E00BE2E00BE2E00BEB5
:1021D0002E002E00003A0000420000BE2E00BE2E4F
:1021E00000BE2E00BE2E00BE2E00BE2E00BE2E0053
:1021F000BE2E00BE2E00BE2E00BE2E00BE2E00BE85
:102200002E002E0000FC2D00922E00BE2E00BE2EB1
:1022100000BE2E00BE2E00BE2E00BE2E00BE2E0022
:10222000BE2E00BE2E00BE2E00BE2E00BE2E00BE54
:102230002E00A22100A22100D221000222003200A1
:1022400000BE2E00BE2E00BE2E00BE2E00BE2E00F2
:10225000BE2E00BE2E00BE2E00BE2E00BE2E00BE24
:102260002E00BE2E00BE2E00BE2E00BE2E0032005E
:1022700000BE2E00460000BE2E00BE2E00BE2E0068
:10228000BE2E00BE2E00BE2E00BE2E00BE2E00BEF4
:102290002E00BE2E00BE2E00BE2E00BE2E0032002E
:1022A00000BE2E00022B00BE2E00BE2E00BE2E0051
:1022B000BE2E00BE2E00BE2E00BE2E00BE2E00BEC4
:1022C0002E00BE2E00BE2E00BE2E00BE2E003E22D0
:1022D000003E22006E22009E22002E0000BE2E0034
:1022E000BE2E00BE2E00BE2E00BE2E00BE2E00BE94
:1022F0002E00BE2E00BE2E00BE2E00BE2E00BE2E14
:1023000000BE2E00BE2E00BE2E002E00003E00009D
:10231000BE2E00BE2E00BE2E00BE2E00BE2E00BE63
:102320002E00BE2E00BE2E00BE2E00BE2E00BE2EE3
:1023300000BE2E00BE2E00BE2E002E00004428003F
:10234000BE2E00BE2E00BE2E00BE2E00BE2E00BE33
:102350002E00BE2E00BE2E00BE2E00BE2E00BE2EB3
:1023600000BE2E00BE2E00BE2E00DA2200DA2200B1
:102370000A23003A2300360000BE2E00BE2E00BE07
:102380002E00BE2E00BE2E00BE2E00BE2E00BE2E83
:1023900000BE2E00BE2E00BE2E00BE2E00BE2E00A1
:1023A000BE2E00BE2E007623007623007623007614
:1023B0002300010204081020408040800102040133
:1023C00002040820100001010101010101010202C3
:1023D00002020200000000000000D9CFE5FFE1CFBB
:1023E000D9FF00C0E5FF01C0E5FF02C0E5FF03C063
:1023F000E5FF04C0E5FF020EDBCF00F0030EDBCFEC
:1024000001F0C60E0024026E036A230E0322046A42
:10241000000E042202C0F6FF03C0F7FF04C0F8FF5D
:102420000900F5CF02F0030E025CD8B09AD0FA6A28
:10243000FB6A0234FA36E834FA36FC0B4C0FE56ED0
:10244000240EFA22000EFB22E450F96E2CEF12F05B
:1024500059EF12F086EF12F0015015E0B20E002491
:10246000026E036A230E0322046A000E042202C0D5
:10247000F6FF03C0F7FF04C0F8FF0900F5CF02F034
:10248000025092126ED0B20E0024026E036A230E26
:102490000322046A000E042202C0F6FF03C0F7FF05
:1024A00004C0F8FF0900F5CF02F00250FF089216B1
:1024B00058D0015015E0B20E0024026E036A230EBC
:1024C0000322046A000E042202C0F6FF03C0F7FFD5
:1024D00004C0F8FF0900F5CF02F00250931241D07A
:1024E000B20E0024026E036A230E0322046A000E59
:1024F000042202C0F6FF03C0F7FF04C0F8FF090082
:10250000F5CF02F00250FF0893162BD0015015E0D2
:10251000B20E0024016E026A230E0222036A000E2C
:10252000032201C0F6FF02C0F7FF03C0F8FF090055
:10253000F5CF01F00150941214D0016A026AB20E74
:102540000026230E0122000E022200C0F6FF01C069
:10255000F7FF02C0F8FF0900F5CF00F00050FF08B8
:102560009416E4CF04F0E4CF03F0E4CF02F0E4CF1C
:1025700001F0E4CF00F0E4CFD9FF1200D9CFE5FF9E
:10258000E1CFD9FF00C0E5FF01C0E5FF02C0E5FFD4
:1025900003C0E5FF04C0E5FF020EDBCF00F0030E31
:1025A000DBCF01F0C60E0024026E036A230E032265
:1025B000046A000E042202C0F6FF03C0F7FF04C045
:1025C000F8FF0900F5CF02F0030E025CD8B09AD0F4
:1025D000FA6AFB6A0234FA36E834FA36FC0BEE0F7C
:1025E000E56E250EFA22000EFB22E450F96EFDEF97
:1025F00012F02AEF13F057EF13F0015015E0B20E6E
:102600000024026E036A230E0322046A000E0422D1
:1026100002C0F6FF03C0F7FF04C0F8FF0900F5CFC2
:1026200002F0025089126ED0B20E0024026E036ACC
:10263000230E0322046A000E042202C0F6FF03C028
:10264000F7FF04C0F8FF0900F5CF02F00250FF08C1
:10265000891658D0015015E0B20E0024026E036AAC
:10266000230E0322046A000E042202C0F6FF03C0F8
:10267000F7FF04C0F8FF0900F5CF02F002508A12FC
:1026800041D0B20E0024026E036A230E0322046AB4
:10269000000E042202C0F6FF03C0F7FF04C0F8FFDB
:1026A0000900F5CF02F00250FF088A162BD0015026
:1026B00015E0B20E0024016E026A230E0222036AA4
:1026C000000E032201C0F6FF02C0F7FF03C0F8FFAF
:1026D0000900F5CF01F001508B1214D0016A026A93
:1026E000B20E0026230E0122000E022200C0F6FFC9
:1026F00001C0F7FF02C0F8FF0900F5CF00F000505D
:10270000FF088B16E4CF04F0E4CF03F0E4CF02F02F
:10271000E4CF01F0E4CF00F0E4CFD9FF1200D9CF2D
:10272000E5FFE1CFD9FF00C0E5FF01C0E5FF02C032
:10273000E5FF03C0E5FF020EDBCF00F0C60E00246C
:10274000016E026A230E0222036A000E032201C0F8
:10275000F6FF02C0F7FF03C0F8FF0900F5CF01F054
:10276000030E015CD8B062D0FA6AFB6A0134FA3613
:10277000E834FA36FC0B860FE56E270EFA22000EBF
:10278000FB22E450F96EC9EF13F0E3EF13F0FDEF15
:1027900013F0B20E0024016E026A230E0222036AB5
:1027A000000E032201C0F6FF02C0F7FF03C0F8FFCE
:1027B0000900F5CF01F080500116015002E0010E32
:1027C00036D0E86A34D0B20E0024016E026A230EBD
:1027D0000222036A000E032201C0F6FF02C0F7FFC7
:1027E00003C0F8FF0900F5CF01F081500116015038
:1027F00002E0010E1CD0E86A1AD0016A026AB20E29
:102800000026230E0122000E022200C0F6FF01C0A6
:10281000F7FF02C0F8FF0900F5CF00F08250001664
:10282000005002E0010E03D0E86A01D0E86AE4CF6C
:1028300003F0E4CF02F0E4CF01F0E4CF00F0E4CF06
:10284000D9FF120000C0E5FF01C0E5FF02C0E5FFAF
:1028500003C0E5FF010E0401095DD8A047D0400E7A
:10286000095DD8B043D0006A04010951005C32E22E
:10287000400E0024016E026A060E022201C0E9FF2A
:1028800002C0EAFFEFCF01F0020187513F0A04E0E6
:1028900002018729026E02D0010E026E02018851E8
:1028A00002180FE087C202F00201872B036A000EB4
:1028B0000226020E032202C0E9FF03C0EAFF01C0A4
:1028C000EFFF02018751400A03E1010E0201876F09
:1028D000002ACAD7400E0401096F08BD03D0C80EF4
:1028E000086F0DD0880E0401086F09D0400E040156
:1028F000096F400E0A6F060E0B6F840E086FE4CF4F
:1029000003F0E4CF02F0E4CF01F0E4CF00F01200D6
:10291000D9CFE5FFE1CFD9FF00C0E5FF01C0E5FF5A
:1029200002C0E5FF03C0E5FF04C0E5FF05C0E5FF09
:1029300006C0E5FF07C0E5FF08C0E5FF020EDBCFDC
:1029400000F0030EDBCF01F0040EDBCF02F0036AD0
:10295000EBEC16F0046E04502BE003C004F0032AE5
:10296000056A066A0050042601500522025006221C
:1029700088C207F00201882B086A000E0726020EA3
:10298000082207C0E9FF08C0EAFFEFCF07F007C041
:10299000E5FF04C0E9FF05C0F3FF065031EC00F08D
:1029A00002018851400AD4E1010E0201886FD0D79C
:1029B0000350E4CF08F0E4CF07F0E4CF06F0E4CF13
:1029C00005F0E4CF04F0E4CF03F0E4CF02F0E4CF6D
:1029D00001F0E4CF00F0E4CFD9FF1200840EF66ED0
:1029E0002E0EF76E000EF86E0900F550056E090008
:1029F000F550066E055002E106503BE00900F55027
:102A0000006E0900F550016E0900F550026E0900D4
:102A10000900F550E96E0900F550EA6E0900090059
:102A20000900F550036E0900F550046E0900090015
:102A3000F6CF07F0F7CF08F0F8CF09F000C0F6FFA7
:102A400001C0F7FF02C0F8FF035002E1045007E0A5
:102A50000900F550EE6E0306F8E20406F9D707C048
:102A6000F6FF08C0F7FF09C0F8FF0506C4E2060636
:102A7000C5D7120000C0E5FF01C0E5FF0201896B68
:102A80000DEC10F0006E00500CE0800EE56E020EB2
:102A9000E56E400EE56E44EC16F00201896F030E00
:102AA000E126400E02018925006E016A020E012214
:102AB00000C0E9FF01C0EAFFEF6A895118E040C297
:102AC00000F00050310A09E1010EE56E070EE56ED7
:102AD000BEEC12F0E652E6520AD00050320A07E18C
:102AE000E56A070EE56EBEEC12F0E652E652120EF3
:102AF000E56E94EC16F0E652E4CF01F0E4CF00F07E
:102B0000120002018351841103E1020186512CE17C
:102B1000000E0201845D02E1400E835DD870020167
:102B2000866B8637020183510401156F800EE56EB6
:102B3000020EE56E830EE56EE56A400EE56E800ED0
:102B4000E56E020EE56E800EE56E020EE56E15EC8A
:102B500000F0090EE126040114BD03D0C80E146F65
:102B600003D0880E0401146F1200000E0201845D70
:102B700002E1400E835DD8700201866B8637020148
:102B800083510401156F000E166F060E176F800E2D
:102B9000E56E020EE56E830EE56EE56A400EE56EAB
:102BA000800EE56E020EE56E800EE56E020EE56E9D
:102BB00015EC00F0090EE126040114BD03D0C80E87
:102BC000146F03D0880E0401146F1200D9CFE5FFF3
:102BD000E1CFD9FF00C0E5FF01C0E5FF02C0E5FF7E
:102BE00003C0E5FF020EDBCF00F0030EDBCF01F0E8
:102BF000040EDBCF02F0050EDBCF03F00350E56ED1
:102C00000250E56E0150E56E0050E56EB5EC16F031
:102C1000040EE126E4CF03F0E4CF02F0E4CF01F0AC
:102C2000E4CF00F0E4CFD9FF1200D9CFE5FFE1CF28
:102C3000D9FF00C0E5FF01C0E5FF02C0E5FF03C00A
:102C4000E5FF020EDBCF00F0030EDBCF01F0040E38
:102C5000DBCF02F0050EDBCF03F00350E56E025030
:102C6000E56E0150E56E0050E56EB5EC16F0040E11
:102C7000E126E4CF03F0E4CF02F0E4CF01F0E4CFAB
:102C800000F0E4CFD9FF1200D9CFE5FFE1CFD9FFA3
:102C900000C0E5FF01C0E5FF02C0E5FF020EDBCF8B
:102CA00000F0030EDBCF01F0040EDBCF02F0025088
:102CB000E56E0150E56E0050E56E88EC14F0006E94
:102CC000030EE1260050E4CF02F0E4CF01F0E4CFA0
:102CD00000F0E4CFD9FF120000C0E5FF01C0E5FF1E
:102CE00002C0E5FF006AD6502D10001015E088C222
:102CF00001F00201882B026A000E0126020E022258
:102D000001C0E9FF02C0EAFFEFCF00F08851400A9E
:102D100003E1010E0201886F0050E4CF02F0E4CF1E
:102D200001F0E4CF00F01200D9CFE5FFE1CFD9FFE9
:102D300000C0E5FF01C0E5FF020EDBCF00F0005050
:102D4000E56E8FEC13F0016EE65201700150E56EF6
:102D50000050E56EBEEC12F0E652E652E4CF01F010
:102D6000E4CF00F0E4CFD9FF1200D9CFE5FFE1CFE7
:102D7000D9FF00C0E5FF020EDBCF80F2030EDBCFF0
:102D800081F2040EDBCF82F2050EDBCF00F000C033
:102D900083F20201846BB5EC15F0E4CF00F0E4CFD0
:102DA000D9FF1200D0B202D0930ED012D350030B31
:102DB000800F7D0F02E3D3A4FED7F29EF29C1EEC9F
:102DC00017F055EC17F04FEC17F00FEC17F03AEC4A
:102DD00015F0FDD7120000C0E5FF006A020187511F
:102DE0000201881901E1002A0050D880E866D890D5
:102DF000006A00360050E4CF00F01200400E0401DB
:102E0000096F400E0A6F060E0B6F880E086F1C0EBE
:102E1000716E010E0201876F0201886F1200E56A70
:102E2000120EE56EEDEC11F0E652E652E56A070E81
:102E3000E56EEDEC11F0E652E6521200896A8A6AFC
:102E4000400E8B6E926A936A949094929494949CA0
:102E5000949E806A816A826A120011EEFFF021EE70
:102E6000FFF0F86AA68EA69CEEEC14F0D2EC16F0F9
:102E7000FFD7A1AA06D00FEC00F0689C6890A19A39
:102E80006A6A12000100C02E0000850200000100E5
:102E90000000480E0401146F1A0E726E1200A19AFF
:102EA000A08AA28AF28EF28C12000F0EC16E070E5B
:102EB000B46E12006CEC16F012002DEF17F0120039
:022EC000000010
:10400000D8CFE5FFE0CFE5FFE56EF3CFE5FFF4CFD6
:10401000E5FFE9CFE5FFEACFE5FFFACFE5FFFBCF0C
:10402000E5FFD9CFE5FFE1CFD9FFF6CFE5FFF7CF29
:10403000E5FFF8CFE5FFF5CFE5FFE4CFF5FFE4CFEF
:10404000F8FFE4CFF7FFE4CFF6FFE4CFD9FFE4CFEA
:10405000FBFFE4CFFAFFE4CFEAFFE4CFE9FFE4CFD0
:10406000F4FFE4CFF3FFE450E4CFE0FFE4CFD8FF68
:0240700010003E
:00000001FF
